:0400000039EF05F0DF
:1008000000456E67204D7567696C75726900416EB1
:0708100074686F6E790000AF
:10081800066EF00E8116F00E9316939C939A939899
:100828008A9C8A9A8A9831EC05F0300EAEEC04F076
:10083800140E056E7A0EE82EFED7052EFCD7300E64
:10084800AEEC04F0140E056E7A0EE82EFED7052ED7
:10085800FCD7320EAEEC04F0EBEC04F00009D8A49F
:10086800FBD7EBEC04F00009D8A4FBD70650AEEC9C
:1008780004F0EBEC04F00009D8A4FBD7080EAEECAA
:1008880004F0EBEC04F00009D8A4FBD70F0EAEEC93
:1008980004F0EBEC04F00009D8A4FBD7010EAEEC91
:1008A80004F0EBEC04F00009D8A4FBD7040EAEEC7E
:1008B80004F0EBEC04F00009D8A4FBD7800E66EC3A
:1008C80004F01200046EF00E9316F00E8116045018
:1008D800016E026A018E040E036E02340232013286
:1008E800032EFBD701500F0B81128A9C8A9A40EC89
:1008F80005F08A8840EC05F08A98F00E81160450BD
:100908000F0B811240EC05F08A8840EC05F08A98BC
:100918000F0E93121200016EF00E9316F00E811650
:1009280001380F0B0F0B81128A8A8A9C40EC05F064
:100938008A8840EC05F08A98F00E811601500F0B5A
:10094800811240EC05F08A8840EC05F08A980F0E79
:1009580093121200016EF00E9316F00E81160138F4
:100968000F0B0F0B81128A9C8A9A40EC05F08A883B
:1009780040EC05F08A98F00E811601500F0B811299
:1009880040EC05F08A8840EC05F08A980F0E931227
:100998001200620ED36E0F0EC16E000E926E000E24
:1009A800936E000E946E000E8A6E22EC05F0010E16
:1009B800026E080E036E08EC05F0400E66EC04F0BB
:1009C8000E0E026E080E036E08EC05F0FFD78A8C37
:1009D8008A9A40EC05F08A8840EC05F081A60AD096
:1009E8008A9840EC05F08A8840EC05F08A988A9C41
:1009F800010E12008A9840EC05F08A8840EC05F058
:100A08008A988A9C000E12000FD0EBEC04F00009C3
:100A1800D8A4FBD702C0F6FF03C0F7FF0800F550C3
:100A28008FEC04F0024A032A02C0F6FF03C0F7FF66
:100A38000800F5500009D8B41200E7D7280E0CECCE
:100A480004F0EBEC04F00009D8A4FBD7060EAEECDA
:100A580004F00F0EAEEC04F01200140E016E7A0EC4
:100A6800E82EFED7012EFCD71200000EF86E080EF5
:100A7800F76E0001CDEF04F0060EE82EFED7120047
:020000040020DA
:08000000FFFFFFFFFFFFFFFF00
:020000040030CA
:0E0000000008191EFF0180FF0FC00FE00F4027
:00000001FF
